{
  "contractName": "Gaming",
  "abi": [
    {
      "inputs": [],
      "payable": true,
      "stateMutability": "payable",
      "type": "constructor"
    },
    {
      "payable": true,
      "stateMutability": "payable",
      "type": "fallback"
    },
    {
      "constant": true,
      "inputs": [
        {
          "name": "number",
          "type": "uint256"
        },
        {
          "name": "display",
          "type": "uint256"
        },
        {
          "name": "guess",
          "type": "bool"
        }
      ],
      "name": "determineWinner",
      "outputs": [
        {
          "name": "",
          "type": "bool"
        }
      ],
      "payable": false,
      "stateMutability": "pure",
      "type": "function"
    },
    {
      "constant": false,
      "inputs": [
        {
          "name": "display",
          "type": "uint256"
        },
        {
          "name": "guess",
          "type": "bool"
        },
        {
          "name": "wager",
          "type": "uint256"
        }
      ],
      "name": "winOrLose",
      "outputs": [
        {
          "name": "",
          "type": "bool"
        }
      ],
      "payable": true,
      "stateMutability": "payable",
      "type": "function"
    },
    {
      "constant": false,
      "inputs": [],
      "name": "withdrawFunds",
      "outputs": [],
      "payable": false,
      "stateMutability": "nonpayable",
      "type": "function"
    }
  ],
  "bytecode": "0x6080604052336000806101000a81548173ffffffffffffffffffffffffffffffffffffffff021916908373ffffffffffffffffffffffffffffffffffffffff1602179055506001600060146101000a81548160ff02191690831515021790555061043c8061006e6000396000f3fe608060405260043610610057576000357c0100000000000000000000000000000000000000000000000000000000900463ffffffff168063171273a51461005957806324600fc3146100c2578063c3488937146100d9575b005b34801561006557600080fd5b506100a86004803603606081101561007c57600080fd5b810190808035906020019092919080359060200190929190803515159060200190929190505050610135565b604051808215151515815260200191505060405180910390f35b3480156100ce57600080fd5b506100d7610186565b005b61011b600480360360608110156100ef57600080fd5b8101908080359060200190929190803515159060200190929190803590602001909291905050506102aa565b604051808215151515815260200191505060405180910390f35b600060011515821515141561015a5782841115610155576001905061017f565b61017a565b6000151582151514156101795782841115610178576000905061017f565b5b5b600090505b9392505050565b6000809054906101000a900473ffffffffffffffffffffffffffffffffffffffff1673ffffffffffffffffffffffffffffffffffffffff163373ffffffffffffffffffffffffffffffffffffffff1614151561024a576040517f08c379a00000000000000000000000000000000000000000000000000000000081526004018080602001828103825260178152602001807f4f6e6c79206f776e65722063616e20776974686472617700000000000000000081525060200191505060405180910390fd5b3373ffffffffffffffffffffffffffffffffffffffff166108fc3073ffffffffffffffffffffffffffffffffffffffff16319081150290604051600060405180830381858888f193505050501580156102a7573d6000803e3d6000fd5b50565b600060011515600060149054906101000a900460ff161515141515610337576040517f08c379a00000000000000000000000000000000000000000000000000000000081526004018080602001828103825260138152602001807f47616d65206d757374206265206f6e6c696e650000000000000000000000000081525060200191505060405180910390fd5b343373ffffffffffffffffffffffffffffffffffffffff16311115156103c5576040517f08c379a00000000000000000000000000000000000000000000000000000000081526004018080602001828103825260128152602001807f496e73756666696369656e742066756e6473000000000000000000000000000081525060200191505060405180910390fd5b60006103cf6103ec565b905060006103de828787610135565b905080925050509392505050565b6000806001600a60014303406001900481151561040557fe5b06019050809150509056fea165627a7a723058207fedd4bc4044c89474767c2439d40f1f31b43ed89b24f8bdc102401ed26a58d50029",
  "source": "pragma solidity 0.5.0;\n\ncontract Gaming {\n    address owner;\n    bool online;\n\n    struct Player {\n        address player;\n        string playerName;\n        uint playerBalance;\n        uint wins;\n        uint losses;\n    }\n\n    mapping (uint => Player) players;\n\n    constructor() public payable {\n        owner = msg.sender;\n        online = true;\n    }\n\n    // Fallback function to allow receiving Ether\n    function() external payable {}\n\n    function mysteryNumber() internal view returns (uint) {\n        uint randomNumber = uint(blockhash(block.number - 1)) % 10 + 1;\n        return randomNumber;\n    }\n\n    function determineWinner(uint number, uint display, bool guess) public pure returns (bool) {\n        if (guess == true) {\n            if (number > display) {\n                return true;\n            }\n        } else if (guess == false) {\n            if (number > display) {\n                return false;\n            }\n        }\n        // Fallback return to ensure all paths return a value\n        return false;\n    }\n\n    function winOrLose(uint display, bool guess, uint wager) external payable returns (bool) {\n        require(online == true, \"Game must be online\");\n        require(msg.sender.balance > msg.value, \"Insufficient funds\");\n\n        uint secret = mysteryNumber();\n        bool win = determineWinner(secret, display, guess);\n        // This is placeholder logic; you can expand it to record stats\n        return win;\n    }\n\n    function withdrawFunds() public {\n        require(msg.sender == owner, \"Only owner can withdraw\");\n        msg.sender.transfer(address(this).balance);\n    }\n}\n\n",
  "sourcePath": "/home/ubuntu/packt/contracts/Gaming.sol",
  "compiler": {
    "name": "solc",
    "version": "0.5.0+commit.1d4f565a.Emscripten.clang"
  },
  "schemaVersion": "3.4.16",
  "updatedAt": "2025-07-02T21:29:58.846Z",
  "devdoc": {
    "methods": {}
  },
  "userdoc": {
    "methods": {}
  }
}